:100000000C943B100C9458100C9458100C945810ED
:100010000C9458100C9458100C9458100C945810C0
:100020000C9458100C9458100C9458100C945810B0
:100030000C9458100C9453120C9458100C945810A3
:100040000C94E1100C9458100C9458100C94581007
:100050000C9458100C9458100C9458100C94581080
:100060000C9458100C94FF100C9458100C945810C9
:100070000C9458100C9458105A434B5242497246F3
:10008000726C394937613654733466626C35555732
:100090006D786D553450537965574C3541494C4214
:1000A0004C423748753546514767566C7077765ADB
:1000B0004E4A6A33596A4E46626A393465574B4B29
:1000C00067454B68424161346C5A495038487A362A
:1000D00056334D6D3576666D723575714241712BB3
:1000E0006A7338375158792B33374D465871384C2D
:1000F0005766423450423650567936306C3233713E
:1001000075566C54754B5A544F5A6B7A4350372F6F
:10011000372F4A6159456F6C67686776426E6E6724
:100120007641643838312F7A6154466E6F69764A69
:1001300039435075756964507431364D692B4D746F
:10014000426C714F69723844455133353756416FAF
:1001500057485646732F386A675558642F316C7765
:10016000644F4D4F536C2F7A6154486E596B7635FE
:10017000624F3849684D4A68796E614C4A38356338
:100180006B534E7256564E6245592B494A51664C36
:1001900058347A4C336F4B2B32544E506641394FA2
:1001A0006F36724B5052647A504658546135423221
:1001B000326C3563426F4D64532B6E6F516549301D
:1001C000393650486B356659474C514F6F4F61690E
:1001D000726E752F3365677654646F466A37567250
:1001E000594152672B4D3641304742515A57685258
:1001F000345442797A54443369326E384153494118
:100200004A79765830646277786A764A55534963FA
:1002100076302F354D474B326B355557446F6B64F5
:10022000443838783248347733456133454336476C
:100230006A486F6A66722B444F394A707A6E51363B
:1002400075784B4A506F78474255313647373259A7
:100250004B6F5A445732497834683178776E493554
:1002600035754477587278656951765A4670684D8D
:100270004A684E56396E7468614C6E434E647034F1
:100280004E576B356C536771415A584F4C354D6121
:100290006D4B644536314E74664C75377979306EE6
:1002A0005749737755384E50362B68672F4337556B
:1002B00065344C473165706D4C796749474E7933E9
:1002C0006D31436C6B76394A5A4A556F694E416AB3
:1002D000796230643168486F634E4E6464754F4193
:1002E000524F74517247697130527562465571713F
:1002F00055586B3752667A2B65474E743766576D83
:10030000314458473543334B34713558634F637626
:100310007A446C414A35424949354A4A2F33772B52
:10032000474E4D3151534E4E2F663269566E5336FD
:1003300032724A5A647A6763435965666C4256570B
:100340004C456E34657A36666C42565772496B5925
:10035000433462444F734C68713962727267694505
:100360005253464D6F564E3134664F6C6963632F5E
:100370005248336964755279506B43673132693042
:100380005853314B6F673648474E4F3167634D398D
:10039000786545736B5576354A35444934334B356A
:1003A0006838446764376A633658646E61477670AC
:1003B0004C35544B59753733494D2B376870784F4E
:1003C000494D38375276782B75494F6446516C59F0
:1003D00071395A7262756A30666230436868794F63
:1003E00051332F6A726771656D552F674A7378397B
:1003F0004D55566C4F734F61425947375353666F93
:100400005045463875642B7A416C34767A446C4199
:100410004A78434951364C52733171746A63572B91
:100420005748506C71646333774439442B714C5294
:10043000733972744C52565772416E5961375A6211
:10044000646D53795876423475393576374B6D493A
:1004500077324B784177494257793458304C654868
:100460006D4A4F566B637535683842674E356A4D35
:1004700059624D463257397237716A553758586D3F
:10048000394B574F51482F6A716771466D5539374F
:100490003471785772346D59792B5A7A34693658D9
:1004A000454E65334146397A346936584546663398
:1004B00049453937357178574C456C344F3535508F
:1004C000664F45734551765A4E356A4D59624F46CF
:1004D0004751396239695153447468734D68745295
:1004E0006437722B74646D543332795658504548D2
:1004F00046516E37362F5A595A757A6A664F4735C4
:10050000556175636E30797A5650557A6B4A574407
:10051000542F6D67312B68307664327958764234C7
:100520007539377672416E59617A5962317252610A
:100530004B55716C6A63636E525030364674527913
:1005400074345A6265474B78673049687932617A0A
:10055000416C367644466C77766C79753172656994
:100560006D424E776354766B4F353571664F474A0F
:10057000555376734F707A7259752B726A68694D4C
:1005800051614F4E48513161716F724675642B7ADB
:1005900067683650484648302F663269567652367C
:1005A000756F4C427531347654506B676C38686B9C
:1005B00074566E77667A77656942765273317174D4
:1005C0006A55582B2B43504E505A30536A706A4D1F
:1005D000595450464F5A2B54457462724C6B696B98
:1005E00056616D4951364A52382F70395A62454525
:1005F000673048382B502B37436C71316A4D576D3B
:1006000033724D465753394C666D41776E30796D74
:100610005650576D314C5747524831694E6B5169AE
:1006200046745471636D617A417437764C456E340B
:100630002B2F372F4A45333665574B7868384C5245
:1006400071396262726F6A3034504755312B6E7265
:10065000303272326763502B425145664B5A6455B3
:100660005548656B71497661463467484A5A465821
:100670006A63563947464D325A7A4D472B50386A8D
:10068000537670395A624745785746737364757864
:1006900041774B426D38376E4B45743535334334B3
:1006A00032323433774C2B4447744C70723153716F
:1006B00055765A37356979577A446C414A354449F9
:1006C000343349355279415144345443356979576B
:1006D0007A4C6B41427741416838426774396A739A
:1006E0003866756843346244756F4C4275393776A5
:1006F0004C456C347531347654486E6739766A38B7
:100700002F332F547167713147513972646D5143E2
:100710006E70443459374C7073746A63382F75683F
:100720004377594457764C354A78434951364A52B3
:1007300038336F395261474D77654F746A63572B71
:10074000324C4F4647513962387951536A426934C5
:1007500077654D5A545356366F492B626C70524B25
:100760006F6736486D4250564D52765273397074E9
:10077000626257475248316974675343786A7765B4
:100780004346747859374A5A393367384751396282
:10079000646D697933727859713171726A68534D39
:1007A0007757397437586E6D394B6B4F67425054D9
:1007B0004D6B716A436C617444596D65794C654247
:1007C0006D30366E694A735255796F563065737065
:1007D0007A325379586E43345736375873496366C3
:1007E0005648566D4D45562B75774E3964546C6797
:1007F000703944496337723974566C517674784F46
:100800007467646664475675734166664E4D572B30
:1008100032444E462B58396A616D6F3177574E74AA
:1008200062625547684A325354766A382B58396A9F
:1008300036696F565561734A58367A5737436E4951
:10084000342F4A35352F42347531347654486E672B
:10085000392F68384F522F54736F62444F734C686E
:100860004B78614C486C416F6B30716C6955642FEB
:100870003471304B41393550624F6D4955367031C6
:10088000385876424B7861724856414946776F46F0
:1008900032652B72446C69735561754A48347847E8
:1008A000704932615376723970564830665433431A
:1008B000356977576A426E51372F5236756F4A4203
:1008C0002B2F352F5A4F30714574627272346A453E
:1008D0003433484564626D67782B425150357875E2
:1008E0006F493837317252367234706C2B33394855
:1008F000616D71526755505A4A5246777264575328
:1009000033724567674D4738325750724C6B536BA3
:10091000565356494978344A58794157695A57517C
:1009200054616A3662755263765648612F717A3423
:10093000372F6853754935702F764C2F4A45483606
:100940002B714C524D35724E505231534C736A6B71
:1009500064626D417832437733327932334C4545A6
:100960006863453847512F624E7352694E7354691C
:10097000646D51796E68434951794B526B306F6C9D
:10098000796565766A426E51623752617167714668
:1009900048592B626C5A5466596D34695148393242
:1009A000616D716741514E4939486C3173646A73A6
:1009B00063627342573637584D45642F5A47317139
:1009C000736F62444F734A6836335937786A776574
:1009D00043467478597A495A563668554C52585796
:1009E000624F6D6F302B703159624F466D552F3706
:1009F0006F777947787232595276786B75414E48E5
:100A000064626D415236425172395271736F5A4469
:100A1000656D4978772B4A7859374A5A392F6A38A1
:100A20002B662B6A6970724E504231537149686A65
:100A30004A5A477A54615570677839303969615438
:100A40006B705A4C667542775035784F494D383740
:100A500078727A653643744A66377A653661734AC6
:100A60005753772B6A4A6B344434527170597875F6
:100A7000494533362B694952302B72316F644D3101
:100A800051534E4E2F6630696C68514B416C347631
:100A900054506B67467767454259456343596566CD
:100AA000464E573233444645705648302F583369C6
:100AB00039795353794469305353646E66474645D8
:100AC0007356765A49354C68763177476C5A652F9C
:100AD0006B686658734963665650576D314C57477B
:100AE000784433435A757832764947635353645098
:100AF0002F43464D495250567364737877324B7882
:100B000041774B426D30346E794C7342577934588B
:100B10005550656E43467478597A4B5A46346A4547
:100B20003558486B64546C414A78434951364A52AF
:100B300038337139425146637156643359472F72C5
:100B40004C736A6B39586C67743968734D5A7352B9
:100B5000557971566B6375354277434152794151EE
:100B60006A635269733454435A6D7932334C474542
:100B7000786545736B5576354A35444934334B3582
:100B800068304167467769455261454D41594F6428
:100B900046596B5943345A44666D4978514B4A3033
:100BA000382F70595A544868593747685243464D50
:100BB0006F564E3159444E462F332F574B73725157
:100BC00071646343774C3832576E4B4D68384456E6
:100BD00038766A4A657A39442B714A52382F70390F
:100BE0005A624545686345384777396263325354E2
:100BF000586E415A4777366D4746505549525030E6
:100C00004D52747764546F38314F6B6F4534724670
:100C10007564387A7772376674495565694A7552D2
:100C20006B30716C6955662F7049326179727264EC
:100C30004E5A6D517A3251796E68414941344A4277
:100C40002B2F4C2F4A4D473657583435772B786E1B
:100C50005078415A67423945387162454D73623068
:100C600071676F5357612B4C486C436F302B723157
:100C700049524E5663627542486736486D70504619
:100C80006B63647078327A67587942474446576795
:100C90002F50417576412F644E5A57517A2B527915
:100CA000766F42417039786F7331597454536E4F77
:100CB00059472F724C6B676B6C556E342B33362F44
:100CC000684A3253546E69385761384C586E413413
:100CD0006D38356E3671754A47677A425250336CBB
:100CE000566E52396D684A4F332B77787659466283
:100CF0004434656646465632504D473857612B4C52
:100D000048747A6F637A61644651565971396272D8
:100D10007267694578574673735676786F394A70AB
:100D2000372F52364F734A6861375A6239715453BC
:100D3000626D53303357467173676F44576E363563
:100D400042777741423478417039446F3833713992
:100D500068554838655439446532497852614B4288
:100D60004D35596466624853786A424F434E646811
:100D7000516937426C55616C435963665650556DE5
:100D800046465632504D45386D633837786A43656C
:100D90007944664275394A76374358493433343595
:100DA000527941516A38546939716853726F5445A8
:100DB0005A5431454A5248553766556D6C4A575713
:100DC0007A446C417031416F6B30716C4351646691
:100DD000394B554F67422F54736761446D704A73A6
:100DE000663778374B4574635A7A4139696B59478E
:100DF0007A44716446516C5971315972546E53384A
:100E000057614D4C5833773448514B7647465064C0
:100E10006F564E6434584E4E61546476656D4E463E
:100E2000614C6D4778443143706F7A473543314B9D
:100E30006F67364847564E3135334D6961546341CB
:100E40002B434F4B5052325637696A547A3257709F
:100E500039616350334448453558466B4E525851BA
:100E600037336736477437704C78534B776A34663C
:100E7000314456474A4D3236576E4B354234424123
:100E80004A784349772B4C786F394A70372F54365C
:100E90002B694B524534724675562F7A4973376E1B
:100EA0004B457435352F44342B33362F424E324B5D
:100EB000336A436754365A72394361546C685975C2
:100EC000587642644F783471584846424E526E31DB
:100ED0003633516647564B704434524370677747F8
:100EE00068423353376967554459576553487668A4
:100EF000723962724C636A5863446C7A7064426FF0
:100F00004D35724E7656337966754477667A7965D3
:100F1000794C734257363558644F7376542F57497E
:100F20005679513844516E32614F63427A32696169
:100F300032377877715671726A70544D59623846FB
:100F4000326538727A7268634B5A7358304C734802
:100F5000327A2F4676644F5541744C497241582F6E
:100F6000617A5962567652364F6B4B6843775944D3
:100F7000576E4B35423441454A78424D67304A6C92
:100F800079325A33777A4A62556E6E6D394B6B4FB0
:100F9000674250544D735A6A36696F565561634AB9
:100FA000332B4232764131634B5276584D4D752F7B
:100FB000414E32795866432F2B3335345276336C99
:100FC000552F52364F734A68362F7037592B44329B
:100FD0002F6932495962394232574D763771515132
:100FE0004C5A6C5344466E7766377A656147747025
:100FF00062375461616D593177572F744C5A6B5772
:10100000696856514C70696634694A433144635388
:101010002B79504E76563179506B4367312B6A30BD
:101020002F663069467452714D6B616A6968714E02
:101030006E5533362B714C527339716C4C52576567
:1010400036536D4159624C5A4E78674D41512F6469
:10105000746455776E30436D56506D6D56506B6DA0
:10106000454E57325833465574566C415035782B9F
:10107000494D384C5276424F75492B646C63573456
:101080003232493351484E6A366971564551745A65
:10109000643768634B5264583843765076493263FC
:1010A00053537650504D303847514E6239716A5320
:1010B000626D69305861324B522F352F357133656F
:1010C000516E3572787A325734697778444E6B585E
:1010D0006E3077426C425878374356764A5A3775A5
:1010E000767442754D4D752F4146317976514445A0
:1010F000782B41305052444B52584D7236696264DD
:10110000455165527439516B4D52655A4E6870465F
:10111000332B324B306A61374674544B636D5954EC
:1011200051334B6667704753546E513847594F627D
:101130006C70684B496B496E794C7342322B353376
:10114000594F38727A6A696353617350327230450D
:10115000684D333432574F764C7353676462584549
:1011600078654130757478754D45642F354B304B3B
:10117000416C34767A446C414A354249706C4B700C
:1011800044595471344B7A2B62576E6F637A716491
:101190006C456E66666237664E45562B4F45503934
:1011A0004A5A475554616D4F77374D445876374A00
:1011B000703978597339626472566C47764131736D
:1011C0004C35636E3062634832442F464F5A4D545B
:1011D000556E6F37787278657141745A644C6863E4
:1011E0007256665170492B38466452717367614478
:1011F0006D68494A587979577A4C6B41423442417B
:101200007031436F3032713141594F6446596B59D7
:1012100043346244756F4A4265374A6639436E4FBC
:10122000344B4D4C586E773447344C4875412F64DD
:1012300074645777332B44322F43484D59544E46EC
:101240002B582F6A4B6B6F6C536165506E4246553D
:101250004C525857624F6B6F6B306F6C53536450E6
:101260002F4B324D5161384E5853464B496B346EBB
:10127000794476424F7836506E5248553633586D21
:101280003943564F4A4D2B376852797551502B448C
:1012900069686F7458613271515035663461324BF0
:1012A000516E362F424E30796E68414967384A6830
:1012B0003776623770417754424E306E6E704264BA
:1012C00049354A632F507872766F4F6445496E6492
:1012D00053795A57307261654E73516E7467544832
:1012E000526E792B5748506C4B5A65586B42645874
:1012F000384B63505848486B39666D6756366855A9
:101300004C5258576247566F7331597454536C4F4F
:1013100049453937356979577A4C6B4141344241F7
:101320004A42433751794969304F704735585051D7
:101330004B526469386966367559476379656376D7
:1013400054486E673933693857532F4C506B416797
:101350006C30676B6C63553447774B48474E2B3185
:1013600067633839775733736372665248594958FF
:101370002B61384E33654771557670375A2B7A3268
:10138000656D476E6362764B4767354D336A4E79BC
:101390002B662B55433171616938572B57504E7569
:1013A000535363452F43474859544F4F76314F3479
:1013B00049304B6E694A655246345A4665724E460C
:1013C000326A4A66553667534C7057577A446C41B7
:1013D0004A78434951364A5238586F39774F453524
:1013E0004559754D467769525253465A494A4D41BF
:1013F0005636754A48777947784433433569775785
:101400006A4A6B51443454435A4F77337559476392
:101410007957647637366D4978324C68686B4A780C
:101420007A65627A496336337141734A38336A7335
:101430005769394C2F714451372F5236766F4A42D3
:101440002B48372B676830544C386A6B39586C67B7
:101450004E5A684D4A424D64385873706137615432
:10146000746F534B354B796536616D495179345200
:10147000557961566B557435596242594B5A7037DC
:1014800065477977332B4232504548382B582F6ABD
:10149000716F70462B66386A7972706439666D6751
:1014A0005636545536336E6D39536E2B34433937B7
:1014B00066754441667A7975547663527975707AA7
:1014C00034714C58734965664646563275414863D7
:1014D000366E636E61477370627A5261436C7274E8
:1014E0006963562B47315067495A4F416B557473A6
:1014F0005A7A434E543662474E45596A5476706361
:101500005A62456C686B4664505A3959556E627719
:10151000685A434635434F6550737931647A684A57
:101520004359664B4646576A664745354D527545A1
:101530004D7872596E3032762F4349523157726767
:1015400041514F4974566B6C763178374546736913
:10155000344B50656E7041646F314C38443453588D
:1015600035717A57624F6D6F55796F565561754A6F
:101570006E307A32314456474A4D323657764C35C2
:101580007031436F565371564549744B55616948E4
:101590003748586D64475875646563767A726B771F
:1015A000683043513132694533653261562F724C90
:1015B0004A4D442B64476E32395366584F6B31386D
:1015C0007574505168684C736E7831554B526E5734
:1015D000623257376437714F746C6E77663778654F
:1015E0007141765A74396A73636A76425035373678
:1015F000767748706254664875413964396E56672B
:101600004D78537451614F73486F3237546E723155
:10161000685547302B6E4F724C73626C715676333F
:101620006F492B626C68534B776A36666C686E57ED
:10163000616556346B5562316A45762F4A4D3236B4
:10164000576E4B3568304367313267306E553336ED
:10165000656D4B7841344B574F353730764147589D
:1016600036586373614F65384477675868707A6499
:1016700059472F347267674542514663716463333B
:1016800077442F444F734A6861375A62387951530F
:1016900044466962314766654C5A684B4A384A6E1F
:1016A00036716559487779585158337A394B5361B7
:1016B000626D68386D4D33795748493578324377D4
:1016C00058797757434E6D77334F7A4D6547485772
:1016D000386E746861375A62396951536A68674D68
:1016E000675550397064453048513361616D6F31D1
:1016F00077574E743758586D3969584F35532B4CBE
:10170000504D4367386E69383232397261326A6ED1
:101710005861335A517634735A474535736772515D
:10172000476C35367A2B6968666D786A6E7341311D
:101730004D6B6D752B433864665430534A73433296
:10174000644F6E2B554865334B4D76706830447747
:1017500056796A455461566541462B6A6F6737581A
:10176000474E4E6C51614E645861316167704B66F3
:101770007641304D7231636E5A6D50724C4D5373D9
:1017800039666E6F5636516372646E2B334C464D1C
:10179000685547302B662F72696872464759335334
:1017A0007962726473646B776E45786845466D78CC
:1017B0002F79314D495A38565553744A2F33772B68
:1017C000473150314A5250434D5A75474541715344
:1017D0006E634D375276782B75344D6430656E34B8
:1017E000557962466B6B6370597A795953367254E6
:1017F0004D73726A71676F46322B2B7243396A4D93
:10180000635474682B583466515831697467534374
:101810005233792B336A4E7465542F724F304B4AD2
:101820004459616A756F49682B7649663469464B3D
:101830006F6F4A482B4B4D4E5853314B6F673448AE
:1018400057484F314B5A65586B4266587349656625
:10185000456C56325055484D2B662B5469705A3999
:1018600066624779786A7975794476784F35372F8B
:10187000504D454D48413972394B52537267694555
:101880005261454D41594D6456616D4951364C5236
:10189000743972744C685842374B6B6668304B32FF
:1018A00043495A44656D4B7867384A68362F5A3732
:1018B0005A577732474E4751585331756F674B6AC5
:1018C0006D4A2B78456F7339303253303365307140
:1018D00045467172433953493833634662727062C8
:1018E000394B54533636546B3766575756506D57ED
:1018F000314456324A73324B58334935527941514B
:101900004477514342744475386173505776323985
:1019100056616B5241674B596E63376E4B45743558
:10192000352F4376657A37666C4A56576A426B5351
:101930007239696F38717054636D717A424E4A76AC
:10194000375357495937495A636267634B4A655859
:10195000454E653368702B5445315A76794C695938
:101960003648646E3761754A48517842675A335633
:101970007A4C6962624C644157764E437A477349A8
:1019800037695649707437707264687A736F5A6138
:1019900065754A6F597A49415569674E44345765B0
:1019A000534876687131617244746A736354744247
:1019B00065373566394B554F41462F7A4955346E58
:1019C0005448734661445A2F307252614B73726CA3
:1019D000715666336F412F624E7354696465547952
:1019E0002B7143486137694E61655A31346E506CD2
:1019F0004C5266324D4D63657744316A4A557A756B
:101A00005648577538616E47786A50447559345551
:101A10002B333571525031336C70516649733479C0
:101A2000364373636637774C7149744D3132673092
:101A30006E5531364F6B4B686930596A796A6F64FD
:101A400056536C4949784B4A48774147684233536B
:101A500037716A55625458475A473171736F5A4407
:101A6000663249787757494C51794B7246516F2FFE
:101A7000324F2B726A786A4A782B4F746A556C2BF6
:101A8000755150644D356C516A38536939695253F8
:101A9000447467734D707652463472514F5A3847CA
:101AA00031725A4F645753793237425971565952ED
:101AB00053506A47654C2B446D704A4A66377A65C5
:101AC000614F73707A2B5261503043493057676AC7
:101AD0004859304E694271616D45333665574978D2
:101AE00052794C7A6C386F486237634858484D31A8
:101AF0006162745858502F31696B742F354B324BDB
:101B00005233362F4274456C6E7078667056492B8E
:101B10007A6D51796E78444452534B526B30723126
:101B2000434964505576587A317258545158316946
:101B3000746F6843706F44473536324B786A364F5E
:101B40006C425848364B6D5A514B4B787339594E4D
:101B5000614C6C6D68684758627569782B33306EDC
:101B60004E385469393651614B4D526B4E52585173
:101B7000627A67616968714E6E55333665754A7869
:101B800034484935513641584B78524E675234509B
:101B90005848466B4E5A6D517A325179486C796F7C
:101BA000302B5A31595450464F5A3854307A61626A
:101BB000454E5138734162566E354A4A2F2F782B65
:101BC0004F454E393576456B45596D747A2B6247D2
:101BD0006F5937484F4D2B39685531387556397A1A
:101BE00034713558634F637654506B676C386A6B49
:101BF00064446E4134584474322B366949733975E4
:101C0000512F7A2B2B79504E4F5A335A53766733D4
:101C10004F702B5445745A72366969557A6D584C19
:101C2000384364712B53467049354F564559755AA0
:101C30006B55676B46416E4A362F5A7135717A572C
:101C4000624F6B6F6B30716C435975666C786C5773
:101C50004B45584E2F33344B517630696B7053508F
:101C6000356937536B3566316C5A66314574633369
:101C700077443944656D4B7841344A42653737665D
:101C80004E4D552B6E4250564D687357395872362B
:101C90006845463875564E7A34714A5863476476BB
:101CA00037436C4949354C4A50357A4F3443394CA7
:101CB0002F71425172315371556672376F6F416A9D
:101CC0004A4D4866326A4C38465969685944484515
:101CD0003558486B64546E415A37425971315972C4
:101CE0007A726A6362446448656D504D4C5A57334A
:101CF0007A446C684A78437078754A5134584B3549
:101D0000686378674D7052736F642B5667554E64E5
:101D1000355846454E786C7771745471386959540A
:101D200056485937783777364C4573645962445969
:101D30006237594C643252696D4A426F49354A7074
:101D40002F2F7A652B3638745761485051763436C8
:101D5000354B3150417436714C456D392B33373624
:101D600042463179507342674E356A4D35484E6C64
:101D7000363366464B4D7562683842434D7851752F
:101D8000416F386431576E6F637A6F6431656D6F80
:101D900055796F56305776707239547138715A547C
:101DA000636D597A5233342F786A33365A2B443262
:101DB000656D303073567570703949786244516181
:101DC000436C6F745461554F674A3854556E593798
:101DD0005276782B4F454E4D5A544831352F475641
:101DE000304F6B6F6B306F6C53536650504D3038C3
:101DF000474150624D456A34556E546758504A35D4
:101E0000342F4179505A3446665746737356767864
:101E10004A704A4A2F487A72336A5046756C2F7A54
:101E20004A6B376A6A6875564E5A724E763132532B
:101E30002F534477793251794874426F733161740A
:101E400043516E6536796373667A7A37794C766B6F
:101E50006D3836437149743856696A7879325675E7
:101E600073496366314C5547684233536275683035
:101E7000763131794F30446F56365363614C6E4F33
:101E800078724743786A77654346767849354C4A95
:101E9000763179755550656E434E75784177494274
:101EA000577934585676656E4356747134334969A0
:101EB00078327972326D7974337245454251466396
:101EC00071647533674A2B546B70704C2F717A5163
:101ED000373351366D68364A6E45796D30445864F3
:101EE0003543335234714C4D4E63636B78723243D9
:101EF000774441656A5A66566B4D5A6C6162754803
:101F0000474650656F563965597A2F757646507A2F
:101F10004A73356E612B767A4477534377727865CE
:101F2000713475696C30696631576E546454716DE3
:101F30006C6B6D7A666A36664556555375514863C3
:101F400037666679695275454E5270463365316918
:101F5000456C5A6A7A6267554C52645838436650E9
:101F6000504D45386D632B37426C79755548666E18
:101F70004B4576357031416F4534724675642B7A26
:101F8000416C36766A425851372F5436656D4B781E
:101F900067304B68437761446D684B4A48777747B1
:101FA000424E3258587642644F5236714764485711
:101FB0005853314B704134483262504E48592F5477
:101FC0004664547164655A7A355336586C7866584D
:101FD00074346366307A56474938323633544B5A34
:101FE0006B4D6A6B386E6C67734669735671754AD0
:101FF0006D4D7A6D3836574F7837384433544B5AD5
:1020000045496A4559724545416746634C6864587D
:10201000393665506D354555696B562B5030503902
:10202000496846554B6856574B306E342F50372F02
:10203000493832363354495A304767306D6B313640
:1020400050634A6862446162456452714E63626AD9
:102050004C63706C376E646E3779764A4F42774FB7
:1020600042312F7A4A63376E4C307435594C44599B
:1020700037485937000011241FBECFEFCDBFDFE333
:10208000DEBF18E3A0E0B8E3E6EDF7E202C005909A
:102090000D92A830B107D9F728E3A8E0B8E301C052
:1020A0001D92AC31B207E1F70E94B5120C94A9134E
:1020B0000C940000E6E5F7EA90E0282F880F330B38
:1020C00081918217130621F09F5F9034C9F79FEF2B
:1020D000892F08954091013850910238609103385A
:1020E00070910438DB01CA01B695A795979587953D
:1020F00040FD09C08093013890930238A0930338C3
:10210000B093043808952CE5822723ED92272CEB19
:10211000A22724EBB227EECFCF92DF92EF92FF926D
:102120000F931F93CF93DF9384E4C82E82E6D82EBB
:1021300084E0E82E81E1F82E08E1C1E0D0E0809152
:10214000163890911738009759F00397A8F5DF914A
:10215000CF911F910F91FF90EF90DF90CF90089556
:10216000C0920138D0920238E0920338F0920438DD
:102170008091183820E2829FC0011124092E000CA2
:10218000AA0BBB0B80930D3890930E38A0930F3899
:10219000B093103810E080911838809FC00111244E
:1021A000181719062CF0C0931638D0931738C7CFDC
:1021B0000E946A101F5FEFCF1092193810921A38E0
:1021C000C6CF1F920F920FB60F9211248F93EF93E9
:1021D000FF93E0E0F4E082E0868385838091C40889
:1021E00080931B38E3ECF8E0808180688083FF9166
:1021F000EF918F910F900FBE0F901F9018951F9227
:102200000F920FB60F921124AF92BF92CF92DF922E
:10221000EF92FF920F931F932F933F934F935F93F0
:102220006F937F938F939F93AF93BF93EF93FF939E
:10223000CF93DF931F92CDB7DEB78091193890917D
:102240001A38019709F0CBC0009116381091173851
:102250000130110509F0C3C0809115388111BAC051
:1022600072E0E72EE0922104FF24F394F09221041F
:1022700080910D3890910E38A0910F38B0911038A0
:1022800088589F4FFC01849140910D3850910E3831
:1022900060910F3870911038FA013196E858FF4F6D
:1022A000A49040910D3850910E3860910F38709184
:1022B0001038FA013296E858FF4FD49040910D380B
:1022C00050910E3860910F3870911038FA013396A2
:1022D000E858FF4FB49040910D3850910E386091FE
:1022E0000F38709110384C5F5F4F6F4F7F4F4093A6
:1022F0000D3850930E3860930F38709310380E9449
:102300005A10C82E8A2D0E945A10A82E8D2D0E9478
:102310005A10D82E8B2D0E945A104C2D50E070E090
:1023200060E0E6E0440F551F661F771FEA95D1F77E
:102330004A29F6E0440F551F661F771FFA95D1F71B
:102340004D29A6E0440F551F661F771FAA95D1F7A8
:102350005A01A82ADB01C501AD0166277727409302
:102360001438492F5A2F6B2F7727409311388983C0
:1023700080911438909101388927809314380E94F5
:102380006A10809111389091013889278093113813
:102390000E946A10D98080910138D826D9820E9483
:1023A0006A108D2D82958F70809312388D2D8F70CD
:1023B000809313380093163810931738809114388F
:1023C00081112CC0F0922204E0922204109219385C
:1023D00010921A388091153881508093153881E019
:1023E0008093960A0F90DF91CF91FF91EF91BF916B
:1023F000AF919F918F917F916F915F914F913F919D
:102400002F911F910F91FF90EF90DF90CF90BF9091
:10241000AF900F900FBE0F901F90189580911438B9
:1024200080931538E09113388091123894E0E99F39
:10243000F0011124EA55F845208131814281538110
:1024400004C056954795379527958A95D2F72093DE
:10245000260A3093270ADA01C901B695A795979500
:1024600087958093380A9093390A809112388111A8
:1024700002C0F092220480911138811105C010929F
:102480003A0A10923B0AA6CFA0911138B0E01196FB
:102490000E948713672F782F892F992760933A0A14
:1024A00070933B0A97CF1F920F920FB60F92112491
:1024B0002F933F934F938F939F93EF93FF9380912D
:1024C000193890911A38892B09F045C08091080479
:1024D00020910638282790910B3880910C38892755
:1024E000822380930C389095922390930B383091EF
:1024F00006384091063889232323822B8427809332
:102500000638E0911838809100388C34D9F4E2957F
:10251000EF70F0E0EA56F845808180688093C40847
:1025200082E58093003881E08093860AFF91EF91E5
:102530009F918F914F913F912F910F900FBE0F90D0
:102540001F901895EF70F0E0EA56F845808180936F
:10255000C4088CE4E6CF8091193890911A3801971D
:1025600011F780E88093C408DECFF89488E0809368
:10257000170480931604809315048093140410921A
:10258000810A85E392E880938C0A90938D0A81E01A
:102590008093850A8093800A44E04093E40592E0AA
:1025A0009093000A23E32093010A20E137E220936D
:1025B000260A3093270A28E833E12093280A30932B
:1025C000290A20932A0A30932B0A2091000A2160BD
:1025D0002093000A809300061092010620E22093C7
:1025E000020630E4309308062093090690930C0607
:1025F00080930A0630912104326030932104309197
:1026000025043260309325049093010490930504CF
:10261000909140049560909340048093E30520934B
:10262000C0084093C1088093C2089091C00891608F
:102630009093C0081092910A25E535E520939C0AF5
:1026400030939D0A8093950A83E08093900A789452
:1026500011E0C1E0D0E08091193890911A380097CC
:10266000D9F00397C0F31092193810921A38F3CFAB
:10267000909106388091053820910538909305385F
:1026800094FD11C08091100690911106A091120640
:10269000B0911306809318388091193890911A38A8
:1026A000892B31F3D8CF8927822385FF08C08091F9
:1026B0001838882389F3809118388150EBCF86FF32
:1026C00008C0809118388F3F39F3809118388F5F98
:1026D000E1CF87FFE1CF80912504816080932504BD
:1026E00080912104816080932104809124048127BA
:1026F000809324041092163810921738C09319381A
:10270000D0931A38109215380E948C10C5CFB7FF9D
:102710000C948F130E948F13821B930B08950E94B9
:102720009A13A59F900DB49F900DA49F800D911DAD
:1027300011240895A29FB001B39FC001A39F700D03
:10274000811D1124911DB29F700D811D1124911DB9
:062750000895F894FFCF8C
:102756004142434445464748494A4B4C4D4E4F50EB
:102766005152535455565758595A616263646566B7
:102776006768696A6B6C6D6E6F707172737475766B
:102786007778797A303132333435363738392B2FFA
:10279600086B44412311104B000102301C601416D3
:1027A600BEEC000074DF0000EAD2000013C7000090
:1027B600E7BB00005BB1000067A70000029E0000B7
:1027C60023950000C58C0000DE840000697D0000B2
:0827D6004C44620411FFFF00F6
:00000001FF
